S0170000636F756E7465725F726576657273652E73726563B2
S11300000C942A000C943F000C943F000C943F0085
S11300100C943F000C943F000C943F000C943F0060
S11300200C943F000C943F000C943F000C943F0050
S11300300C943F000C943F000C943F000C943F0040
S11300400C943F000C943F000C943F000C943F0030
S11300500C943F0011241FBECFE5D4E0DEBFCDBF1A
S113006010E0A0E6B0E0E4EDF0E002C005900D92EF
S1130070AA36B107D9F70E9441000C9468000C9489
S11300800000CF938FEF87BB8ABBA2E6B0E080E687
S113009090E04FE550E02AE630E014C06C9168BB74
S11300A062916BBB6FE37DE0C3E061507040C04080
S11300B0E1F700C000008E179F0781F71197A4177E
S11300C0B50711F0F901EACF80E090E0CF910895EF
S10700D0F894FFCFCE
S10D00D4FC60DAF266B6BEE0FEF648
S9030000FC
